{
  "_format": "hh-sol-artifact-1",
  "contractName": "MusicNFTMarketplace",
  "sourceName": "src/backend/contracts/MusicNFTMarketplace.sol",
  "abi": [
    {
      "inputs": [
        {
          "internalType": "uint256",
          "name": "_royaltyFee",
          "type": "uint256"
        },
        {
          "internalType": "address",
          "name": "_artist",
          "type": "address"
        },
        {
          "internalType": "uint256[]",
          "name": "_prices",
          "type": "uint256[]"
        }
      ],
      "stateMutability": "payable",
      "type": "constructor"
    },
    {
      "anonymous": false,
      "inputs": [
        {
          "indexed": true,
          "internalType": "address",
          "name": "owner",
          "type": "address"
        },
        {
          "indexed": true,
          "internalType": "address",
          "name": "approved",
          "type": "address"
        },
        {
          "indexed": true,
          "internalType": "uint256",
          "name": "tokenId",
          "type": "uint256"
        }
      ],
      "name": "Approval",
      "type": "event"
    },
    {
      "anonymous": false,
      "inputs": [
        {
          "indexed": true,
          "internalType": "address",
          "name": "owner",
          "type": "address"
        },
        {
          "indexed": true,
          "internalType": "address",
          "name": "operator",
          "type": "address"
        },
        {
          "indexed": false,
          "internalType": "bool",
          "name": "approved",
          "type": "bool"
        }
      ],
      "name": "ApprovalForAll",
      "type": "event"
    },
    {
      "anonymous": false,
      "inputs": [
        {
          "indexed": true,
          "internalType": "uint256",
          "name": "tokenId",
          "type": "uint256"
        },
        {
          "indexed": true,
          "internalType": "address",
          "name": "seller",
          "type": "address"
        },
        {
          "indexed": false,
          "internalType": "address",
          "name": "buyer",
          "type": "address"
        },
        {
          "indexed": false,
          "internalType": "uint256",
          "name": "price",
          "type": "uint256"
        }
      ],
      "name": "MarketItemBought",
      "type": "event"
    },
    {
      "anonymous": false,
      "inputs": [
        {
          "indexed": true,
          "internalType": "uint256",
          "name": "tokenId",
          "type": "uint256"
        },
        {
          "indexed": true,
          "internalType": "address",
          "name": "seller",
          "type": "address"
        },
        {
          "indexed": false,
          "internalType": "uint256",
          "name": "price",
          "type": "uint256"
        }
      ],
      "name": "MarketItemRelisted",
      "type": "event"
    },
    {
      "anonymous": false,
      "inputs": [
        {
          "indexed": true,
          "internalType": "address",
          "name": "previousOwner",
          "type": "address"
        },
        {
          "indexed": true,
          "internalType": "address",
          "name": "newOwner",
          "type": "address"
        }
      ],
      "name": "OwnershipTransferred",
      "type": "event"
    },
    {
      "anonymous": false,
      "inputs": [
        {
          "indexed": true,
          "internalType": "address",
          "name": "from",
          "type": "address"
        },
        {
          "indexed": true,
          "internalType": "address",
          "name": "to",
          "type": "address"
        },
        {
          "indexed": true,
          "internalType": "uint256",
          "name": "tokenId",
          "type": "uint256"
        }
      ],
      "name": "Transfer",
      "type": "event"
    },
    {
      "inputs": [
        {
          "internalType": "address",
          "name": "to",
          "type": "address"
        },
        {
          "internalType": "uint256",
          "name": "tokenId",
          "type": "uint256"
        }
      ],
      "name": "approve",
      "outputs": [],
      "stateMutability": "nonpayable",
      "type": "function"
    },
    {
      "inputs": [],
      "name": "artist",
      "outputs": [
        {
          "internalType": "address",
          "name": "",
          "type": "address"
        }
      ],
      "stateMutability": "view",
      "type": "function"
    },
    {
      "inputs": [
        {
          "internalType": "address",
          "name": "owner",
          "type": "address"
        }
      ],
      "name": "balanceOf",
      "outputs": [
        {
          "internalType": "uint256",
          "name": "",
          "type": "uint256"
        }
      ],
      "stateMutability": "view",
      "type": "function"
    },
    {
      "inputs": [],
      "name": "baseExtension",
      "outputs": [
        {
          "internalType": "string",
          "name": "",
          "type": "string"
        }
      ],
      "stateMutability": "view",
      "type": "function"
    },
    {
      "inputs": [],
      "name": "baseURI",
      "outputs": [
        {
          "internalType": "string",
          "name": "",
          "type": "string"
        }
      ],
      "stateMutability": "view",
      "type": "function"
    },
    {
      "inputs": [
        {
          "internalType": "uint256",
          "name": "_tokenId",
          "type": "uint256"
        }
      ],
      "name": "buyToken",
      "outputs": [],
      "stateMutability": "payable",
      "type": "function"
    },
    {
      "inputs": [],
      "name": "getAllUnsoldTokens",
      "outputs": [
        {
          "components": [
            {
              "internalType": "uint256",
              "name": "tokenId",
              "type": "uint256"
            },
            {
              "internalType": "address payable",
              "name": "seller",
              "type": "address"
            },
            {
              "internalType": "uint256",
              "name": "price",
              "type": "uint256"
            }
          ],
          "internalType": "struct MusicNFTMarketplace.MarketItem[]",
          "name": "",
          "type": "tuple[]"
        }
      ],
      "stateMutability": "view",
      "type": "function"
    },
    {
      "inputs": [
        {
          "internalType": "uint256",
          "name": "tokenId",
          "type": "uint256"
        }
      ],
      "name": "getApproved",
      "outputs": [
        {
          "internalType": "address",
          "name": "",
          "type": "address"
        }
      ],
      "stateMutability": "view",
      "type": "function"
    },
    {
      "inputs": [],
      "name": "getMyTokens",
      "outputs": [
        {
          "components": [
            {
              "internalType": "uint256",
              "name": "tokenId",
              "type": "uint256"
            },
            {
              "internalType": "address payable",
              "name": "seller",
              "type": "address"
            },
            {
              "internalType": "uint256",
              "name": "price",
              "type": "uint256"
            }
          ],
          "internalType": "struct MusicNFTMarketplace.MarketItem[]",
          "name": "",
          "type": "tuple[]"
        }
      ],
      "stateMutability": "view",
      "type": "function"
    },
    {
      "inputs": [
        {
          "internalType": "address",
          "name": "owner",
          "type": "address"
        },
        {
          "internalType": "address",
          "name": "operator",
          "type": "address"
        }
      ],
      "name": "isApprovedForAll",
      "outputs": [
        {
          "internalType": "bool",
          "name": "",
          "type": "bool"
        }
      ],
      "stateMutability": "view",
      "type": "function"
    },
    {
      "inputs": [
        {
          "internalType": "uint256",
          "name": "",
          "type": "uint256"
        }
      ],
      "name": "marketItems",
      "outputs": [
        {
          "internalType": "uint256",
          "name": "tokenId",
          "type": "uint256"
        },
        {
          "internalType": "address payable",
          "name": "seller",
          "type": "address"
        },
        {
          "internalType": "uint256",
          "name": "price",
          "type": "uint256"
        }
      ],
      "stateMutability": "view",
      "type": "function"
    },
    {
      "inputs": [],
      "name": "name",
      "outputs": [
        {
          "internalType": "string",
          "name": "",
          "type": "string"
        }
      ],
      "stateMutability": "view",
      "type": "function"
    },
    {
      "inputs": [],
      "name": "owner",
      "outputs": [
        {
          "internalType": "address",
          "name": "",
          "type": "address"
        }
      ],
      "stateMutability": "view",
      "type": "function"
    },
    {
      "inputs": [
        {
          "internalType": "uint256",
          "name": "tokenId",
          "type": "uint256"
        }
      ],
      "name": "ownerOf",
      "outputs": [
        {
          "internalType": "address",
          "name": "",
          "type": "address"
        }
      ],
      "stateMutability": "view",
      "type": "function"
    },
    {
      "inputs": [],
      "name": "renounceOwnership",
      "outputs": [],
      "stateMutability": "nonpayable",
      "type": "function"
    },
    {
      "inputs": [
        {
          "internalType": "uint256",
          "name": "_tokenId",
          "type": "uint256"
        },
        {
          "internalType": "uint256",
          "name": "_price",
          "type": "uint256"
        }
      ],
      "name": "resellToken",
      "outputs": [],
      "stateMutability": "payable",
      "type": "function"
    },
    {
      "inputs": [],
      "name": "royaltyFee",
      "outputs": [
        {
          "internalType": "uint256",
          "name": "",
          "type": "uint256"
        }
      ],
      "stateMutability": "view",
      "type": "function"
    },
    {
      "inputs": [
        {
          "internalType": "address",
          "name": "from",
          "type": "address"
        },
        {
          "internalType": "address",
          "name": "to",
          "type": "address"
        },
        {
          "internalType": "uint256",
          "name": "tokenId",
          "type": "uint256"
        }
      ],
      "name": "safeTransferFrom",
      "outputs": [],
      "stateMutability": "nonpayable",
      "type": "function"
    },
    {
      "inputs": [
        {
          "internalType": "address",
          "name": "from",
          "type": "address"
        },
        {
          "internalType": "address",
          "name": "to",
          "type": "address"
        },
        {
          "internalType": "uint256",
          "name": "tokenId",
          "type": "uint256"
        },
        {
          "internalType": "bytes",
          "name": "data",
          "type": "bytes"
        }
      ],
      "name": "safeTransferFrom",
      "outputs": [],
      "stateMutability": "nonpayable",
      "type": "function"
    },
    {
      "inputs": [
        {
          "internalType": "address",
          "name": "operator",
          "type": "address"
        },
        {
          "internalType": "bool",
          "name": "approved",
          "type": "bool"
        }
      ],
      "name": "setApprovalForAll",
      "outputs": [],
      "stateMutability": "nonpayable",
      "type": "function"
    },
    {
      "inputs": [
        {
          "internalType": "bytes4",
          "name": "interfaceId",
          "type": "bytes4"
        }
      ],
      "name": "supportsInterface",
      "outputs": [
        {
          "internalType": "bool",
          "name": "",
          "type": "bool"
        }
      ],
      "stateMutability": "view",
      "type": "function"
    },
    {
      "inputs": [],
      "name": "symbol",
      "outputs": [
        {
          "internalType": "string",
          "name": "",
          "type": "string"
        }
      ],
      "stateMutability": "view",
      "type": "function"
    },
    {
      "inputs": [
        {
          "internalType": "uint256",
          "name": "tokenId",
          "type": "uint256"
        }
      ],
      "name": "tokenURI",
      "outputs": [
        {
          "internalType": "string",
          "name": "",
          "type": "string"
        }
      ],
      "stateMutability": "view",
      "type": "function"
    },
    {
      "inputs": [
        {
          "internalType": "address",
          "name": "from",
          "type": "address"
        },
        {
          "internalType": "address",
          "name": "to",
          "type": "address"
        },
        {
          "internalType": "uint256",
          "name": "tokenId",
          "type": "uint256"
        }
      ],
      "name": "transferFrom",
      "outputs": [],
      "stateMutability": "nonpayable",
      "type": "function"
    },
    {
      "inputs": [
        {
          "internalType": "address",
          "name": "newOwner",
          "type": "address"
        }
      ],
      "name": "transferOwnership",
      "outputs": [],
      "stateMutability": "nonpayable",
      "type": "function"
    },
    {
      "inputs": [
        {
          "internalType": "uint256",
          "name": "_royaltyFee",
          "type": "uint256"
        }
      ],
      "name": "updateRoyaltyFee",
      "outputs": [],
      "stateMutability": "nonpayable",
      "type": "function"
    }
  ],
  "bytecode": "0x6080604052604051806080016040528060538152602001620042e4605391396007908051906020019062000035929190620006ca565b506040518060400160405280600581526020017f2e6a736f6e0000000000000000000000000000000000000000000000000000008152506008908051906020019062000083929190620006ca565b5060405162004337380380620043378339818101604052810190620000a99190620009a3565b6040518060400160405280600881526020017f44616365746865720000000000000000000000000000000000000000000000008152506040518060400160405280600381526020017f444350000000000000000000000000000000000000000000000000000000000081525081600090805190602001906200012d929190620006ca565b50806001908051906020019062000146929190620006ca565b505050620001696200015d6200038c60201b60201c565b6200039460201b60201c565b3483825162000179919062000a4d565b1115620001bd576040517f08c379a0000000000000000000000000000000000000000000000000000000008152600401620001b49062000b5b565b60405180910390fd5b82600a8190555081600960006101000a81548173ffffffffffffffffffffffffffffffffffffffff021916908373ffffffffffffffffffffffffffffffffffffffff16021790555060005b81518160ff16101562000382576000828260ff168151811062000230576200022f62000b7d565b5b6020026020010151116200027b576040517f08c379a0000000000000000000000000000000000000000000000000000000008152600401620002729062000bfc565b60405180910390fd5b62000290308260ff166200045a60201b60201c565b600b60405180606001604052808360ff1681526020013373ffffffffffffffffffffffffffffffffffffffff168152602001848460ff1681518110620002db57620002da62000b7d565b5b602002602001015181525090806001815401808255809150506001900390600052602060002090600302016000909190919091506000820151816000015560208201518160010160006101000a81548173ffffffffffffffffffffffffffffffffffffffff021916908373ffffffffffffffffffffffffffffffffffffffff1602179055506040820151816002015550508080620003799062000c2b565b91505062000208565b5050505062000e00565b600033905090565b6000600660009054906101000a900473ffffffffffffffffffffffffffffffffffffffff16905081600660006101000a81548173ffffffffffffffffffffffffffffffffffffffff021916908373ffffffffffffffffffffffffffffffffffffffff1602179055508173ffffffffffffffffffffffffffffffffffffffff168173ffffffffffffffffffffffffffffffffffffffff167f8be0079c531659141344cd1fd0a4f28419497f9722a3daafe3b4186f6b6457e060405160405180910390a35050565b600073ffffffffffffffffffffffffffffffffffffffff168273ffffffffffffffffffffffffffffffffffffffff161415620004cd576040517f08c379a0000000000000000000000000000000000000000000000000000000008152600401620004c49062000caa565b60405180910390fd5b620004de816200065460201b60201c565b1562000521576040517f08c379a0000000000000000000000000000000000000000000000000000000008152600401620005189062000d1c565b60405180910390fd5b6200053560008383620006c060201b60201c565b6001600360008473ffffffffffffffffffffffffffffffffffffffff1673ffffffffffffffffffffffffffffffffffffffff168152602001908152602001600020600082825462000587919062000d3e565b92505081905550816002600083815260200190815260200160002060006101000a81548173ffffffffffffffffffffffffffffffffffffffff021916908373ffffffffffffffffffffffffffffffffffffffff160217905550808273ffffffffffffffffffffffffffffffffffffffff16600073ffffffffffffffffffffffffffffffffffffffff167fddf252ad1be2c89b69c2b068fc378daa952ba7f163c4a11628f55a4df523b3ef60405160405180910390a46200065060008383620006c560201b60201c565b5050565b60008073ffffffffffffffffffffffffffffffffffffffff166002600084815260200190815260200160002060009054906101000a900473ffffffffffffffffffffffffffffffffffffffff1673ffffffffffffffffffffffffffffffffffffffff1614159050919050565b505050565b505050565b828054620006d89062000dca565b90600052602060002090601f016020900481019282620006fc576000855562000748565b82601f106200071757805160ff191683800117855562000748565b8280016001018555821562000748579182015b82811115620007475782518255916020019190600101906200072a565b5b5090506200075791906200075b565b5090565b5b80821115620007765760008160009055506001016200075c565b5090565b6000604051905090565b600080fd5b600080fd5b6000819050919050565b620007a3816200078e565b8114620007af57600080fd5b50565b600081519050620007c38162000798565b92915050565b600073ffffffffffffffffffffffffffffffffffffffff82169050919050565b6000620007f682620007c9565b9050919050565b6200080881620007e9565b81146200081457600080fd5b50565b6000815190506200082881620007fd565b92915050565b600080fd5b6000601f19601f8301169050919050565b7f4e487b7100000000000000000000000000000000000000000000000000000000600052604160045260246000fd5b6200087e8262000833565b810181811067ffffffffffffffff82111715620008a0576200089f62000844565b5b80604052505050565b6000620008b56200077a565b9050620008c3828262000873565b919050565b600067ffffffffffffffff821115620008e657620008e562000844565b5b602082029050602081019050919050565b600080fd5b6000620009136200090d84620008c8565b620008a9565b90508083825260208201905060208402830185811115620009395762000938620008f7565b5b835b81811015620009665780620009518882620007b2565b8452602084019350506020810190506200093b565b5050509392505050565b600082601f8301126200098857620009876200082e565b5b81516200099a848260208601620008fc565b91505092915050565b600080600060608486031215620009bf57620009be62000784565b5b6000620009cf86828701620007b2565b9350506020620009e28682870162000817565b925050604084015167ffffffffffffffff81111562000a065762000a0562000789565b5b62000a148682870162000970565b9150509250925092565b7f4e487b7100000000000000000000000000000000000000000000000000000000600052601160045260246000fd5b600062000a5a826200078e565b915062000a67836200078e565b9250817fffffffffffffffffffffffffffffffffffffffffffffffffffffffffffffffff048311821515161562000aa35762000aa262000a1e565b5b828202905092915050565b600082825260208201905092915050565b7f4465706c6f796572206d7573742070617920726f79616c74792066656520666f60008201527f72206561636820746f6b656e206c6973746564206f6e20746865206d61726b6560208201527f74706c6163650000000000000000000000000000000000000000000000000000604082015250565b600062000b4360468362000aae565b915062000b508262000abf565b606082019050919050565b6000602082019050818103600083015262000b768162000b34565b9050919050565b7f4e487b7100000000000000000000000000000000000000000000000000000000600052603260045260246000fd5b7f5072696365206d7573742062652067726561746572207468616e203000000000600082015250565b600062000be4601c8362000aae565b915062000bf18262000bac565b602082019050919050565b6000602082019050818103600083015262000c178162000bd5565b9050919050565b600060ff82169050919050565b600062000c388262000c1e565b915060ff82141562000c4f5762000c4e62000a1e565b5b600182019050919050565b7f4552433732313a206d696e7420746f20746865207a65726f2061646472657373600082015250565b600062000c9260208362000aae565b915062000c9f8262000c5a565b602082019050919050565b6000602082019050818103600083015262000cc58162000c83565b9050919050565b7f4552433732313a20746f6b656e20616c7265616479206d696e74656400000000600082015250565b600062000d04601c8362000aae565b915062000d118262000ccc565b602082019050919050565b6000602082019050818103600083015262000d378162000cf5565b9050919050565b600062000d4b826200078e565b915062000d58836200078e565b9250827fffffffffffffffffffffffffffffffffffffffffffffffffffffffffffffffff0382111562000d905762000d8f62000a1e565b5b828201905092915050565b7f4e487b7100000000000000000000000000000000000000000000000000000000600052602260045260246000fd5b6000600282049050600182168062000de357607f821691505b6020821081141562000dfa5762000df962000d9b565b5b50919050565b6134d48062000e106000396000f3fe6080604052600436106101815760003560e01c806370a08231116100d1578063b88d4fde1161008a578063c87b56dd11610064578063c87b56dd14610565578063e219fc75146105a2578063e985e9c5146105be578063f2fde38b146105fb57610181565b8063b88d4fde146104e6578063b8997a971461050f578063c66828621461053a57610181565b806370a08231146103e8578063715018a614610425578063767dd0761461043c5780638da5cb5b1461046757806395d89b4114610492578063a22cb465146104bd57610181565b806342842e0e1161013e57806351f28e141161011857806351f28e14146103165780635b3b136a146103555780636352211e146103805780636c0360eb146103bd57610181565b806342842e0e1461029957806343bc1612146102c25780634e83be47146102ed57610181565b806301ffc9a71461018657806306fdde03146101c3578063081812fc146101ee578063095ea7b31461022b57806323b872dd146102545780632d296bf11461027d575b600080fd5b34801561019257600080fd5b506101ad60048036038101906101a891906122b1565b610624565b6040516101ba91906122f9565b60405180910390f35b3480156101cf57600080fd5b506101d8610706565b6040516101e591906123ad565b60405180910390f35b3480156101fa57600080fd5b5061021560048036038101906102109190612405565b610798565b6040516102229190612473565b60405180910390f35b34801561023757600080fd5b50610252600480360381019061024d91906124ba565b6107de565b005b34801561026057600080fd5b5061027b600480360381019061027691906124fa565b6108f6565b005b61029760048036038101906102929190612405565b610956565b005b3480156102a557600080fd5b506102c060048036038101906102bb91906124fa565b610b84565b005b3480156102ce57600080fd5b506102d7610ba4565b6040516102e49190612473565b60405180910390f35b3480156102f957600080fd5b50610314600480360381019061030f9190612405565b610bca565b005b34801561032257600080fd5b5061033d60048036038101906103389190612405565b610bdc565b60405161034c9392919061257d565b60405180910390f35b34801561036157600080fd5b5061036a610c36565b60405161037791906126c3565b60405180910390f35b34801561038c57600080fd5b506103a760048036038101906103a29190612405565b610dcf565b6040516103b49190612473565b60405180910390f35b3480156103c957600080fd5b506103d2610e81565b6040516103df91906123ad565b60405180910390f35b3480156103f457600080fd5b5061040f600480360381019061040a91906126e5565b610f0f565b60405161041c9190612712565b60405180910390f35b34801561043157600080fd5b5061043a610fc7565b005b34801561044857600080fd5b50610451610fdb565b60405161045e91906126c3565b60405180910390f35b34801561047357600080fd5b5061047c6111b1565b6040516104899190612473565b60405180910390f35b34801561049e57600080fd5b506104a76111db565b6040516104b491906123ad565b60405180910390f35b3480156104c957600080fd5b506104e460048036038101906104df9190612759565b61126d565b005b3480156104f257600080fd5b5061050d600480360381019061050891906128ce565b611283565b005b34801561051b57600080fd5b506105246112e5565b6040516105319190612712565b60405180910390f35b34801561054657600080fd5b5061054f6112eb565b60405161055c91906123ad565b60405180910390f35b34801561057157600080fd5b5061058c60048036038101906105879190612405565b611379565b60405161059991906123ad565b60405180910390f35b6105bc60048036038101906105b79190612951565b6113e1565b005b3480156105ca57600080fd5b506105e560048036038101906105e09190612991565b611554565b6040516105f291906122f9565b60405180910390f35b34801561060757600080fd5b50610622600480360381019061061d91906126e5565b6115e8565b005b60007f80ac58cd000000000000000000000000000000000000000000000000000000007bffffffffffffffffffffffffffffffffffffffffffffffffffffffff1916827bffffffffffffffffffffffffffffffffffffffffffffffffffffffff191614806106ef57507f5b5e139f000000000000000000000000000000000000000000000000000000007bffffffffffffffffffffffffffffffffffffffffffffffffffffffff1916827bffffffffffffffffffffffffffffffffffffffffffffffffffffffff1916145b806106ff57506106fe8261166c565b5b9050919050565b60606000805461071590612a00565b80601f016020809104026020016040519081016040528092919081815260200182805461074190612a00565b801561078e5780601f106107635761010080835404028352916020019161078e565b820191906000526020600020905b81548152906001019060200180831161077157829003601f168201915b5050505050905090565b60006107a3826116d6565b6004600083815260200190815260200160002060009054906101000a900473ffffffffffffffffffffffffffffffffffffffff169050919050565b60006107e982610dcf565b90508073ffffffffffffffffffffffffffffffffffffffff168373ffffffffffffffffffffffffffffffffffffffff16141561085a576040517f08c379a000000000000000000000000000000000000000000000000000000000815260040161085190612aa4565b60405180910390fd5b8073ffffffffffffffffffffffffffffffffffffffff16610879611721565b73ffffffffffffffffffffffffffffffffffffffff1614806108a857506108a7816108a2611721565b611554565b5b6108e7576040517f08c379a00000000000000000000000000000000000000000000000000000000081526004016108de90612b36565b60405180910390fd5b6108f18383611729565b505050565b610907610901611721565b826117e2565b610946576040517f08c379a000000000000000000000000000000000000000000000000000000000815260040161093d90612bc8565b60405180910390fd5b610951838383611877565b505050565b6000600b828154811061096c5761096b612be8565b5b90600052602060002090600302016002015490506000600b838154811061099657610995612be8565b5b906000526020600020906003020160010160009054906101000a900473ffffffffffffffffffffffffffffffffffffffff169050813414610a0c576040517f08c379a0000000000000000000000000000000000000000000000000000000008152600401610a0390612c89565b60405180910390fd5b6000600b8481548110610a2257610a21612be8565b5b906000526020600020906003020160010160006101000a81548173ffffffffffffffffffffffffffffffffffffffff021916908373ffffffffffffffffffffffffffffffffffffffff160217905550610a7c303385611877565b600960009054906101000a900473ffffffffffffffffffffffffffffffffffffffff1673ffffffffffffffffffffffffffffffffffffffff166108fc600a549081150290604051600060405180830381858888f19350505050158015610ae6573d6000803e3d6000fd5b508073ffffffffffffffffffffffffffffffffffffffff166108fc349081150290604051600060405180830381858888f19350505050158015610b2d573d6000803e3d6000fd5b508073ffffffffffffffffffffffffffffffffffffffff16837fd356b8423ef89ccba8e4f1dbeccc60b41825fd97d432f2e6a6dbd11ae6ecec113385604051610b77929190612ca9565b60405180910390a3505050565b610b9f83838360405180602001604052806000815250611283565b505050565b600960009054906101000a900473ffffffffffffffffffffffffffffffffffffffff1681565b610bd2611ade565b80600a8190555050565b600b8181548110610bec57600080fd5b90600052602060002090600302016000915090508060000154908060010160009054906101000a900473ffffffffffffffffffffffffffffffffffffffff16908060020154905083565b60606000610c4333610f0f565b905060008167ffffffffffffffff811115610c6157610c606127a3565b5b604051908082528060200260200182016040528015610c9a57816020015b610c8761220e565b815260200190600190039081610c7f5790505b509050600080600090505b600b80549050811015610dc5573373ffffffffffffffffffffffffffffffffffffffff16610cd282610dcf565b73ffffffffffffffffffffffffffffffffffffffff161415610db257600b8181548110610d0257610d01612be8565b5b9060005260206000209060030201604051806060016040529081600082015481526020016001820160009054906101000a900473ffffffffffffffffffffffffffffffffffffffff1673ffffffffffffffffffffffffffffffffffffffff1673ffffffffffffffffffffffffffffffffffffffff168152602001600282015481525050838381518110610d9857610d97612be8565b5b60200260200101819052508180610dae90612d01565b9250505b8080610dbd90612d01565b915050610ca5565b5081935050505090565b6000806002600084815260200190815260200160002060009054906101000a900473ffffffffffffffffffffffffffffffffffffffff169050600073ffffffffffffffffffffffffffffffffffffffff168173ffffffffffffffffffffffffffffffffffffffff161415610e78576040517f08c379a0000000000000000000000000000000000000000000000000000000008152600401610e6f90612d96565b60405180910390fd5b80915050919050565b60078054610e8e90612a00565b80601f0160208091040260200160405190810160405280929190818152602001828054610eba90612a00565b8015610f075780601f10610edc57610100808354040283529160200191610f07565b820191906000526020600020905b815481529060010190602001808311610eea57829003601f168201915b505050505081565b60008073ffffffffffffffffffffffffffffffffffffffff168273ffffffffffffffffffffffffffffffffffffffff161415610f80576040517f08c379a0000000000000000000000000000000000000000000000000000000008152600401610f7790612e28565b60405180910390fd5b600360008373ffffffffffffffffffffffffffffffffffffffff1673ffffffffffffffffffffffffffffffffffffffff168152602001908152602001600020549050919050565b610fcf611ade565b610fd96000611b5c565b565b60606000610fe830610f0f565b905060008167ffffffffffffffff811115611006576110056127a3565b5b60405190808252806020026020018201604052801561103f57816020015b61102c61220e565b8152602001906001900390816110245790505b509050600080600090505b600b805490508110156111a757600073ffffffffffffffffffffffffffffffffffffffff16600b828154811061108357611082612be8565b5b906000526020600020906003020160010160009054906101000a900473ffffffffffffffffffffffffffffffffffffffff1673ffffffffffffffffffffffffffffffffffffffff161461119457600b81815481106110e4576110e3612be8565b5b9060005260206000209060030201604051806060016040529081600082015481526020016001820160009054906101000a900473ffffffffffffffffffffffffffffffffffffffff1673ffffffffffffffffffffffffffffffffffffffff1673ffffffffffffffffffffffffffffffffffffffff16815260200160028201548152505083838151811061117a57611179612be8565b5b6020026020010181905250818061119090612d01565b9250505b808061119f90612d01565b91505061104a565b5081935050505090565b6000600660009054906101000a900473ffffffffffffffffffffffffffffffffffffffff16905090565b6060600180546111ea90612a00565b80601f016020809104026020016040519081016040528092919081815260200182805461121690612a00565b80156112635780601f1061123857610100808354040283529160200191611263565b820191906000526020600020905b81548152906001019060200180831161124657829003601f168201915b5050505050905090565b61127f611278611721565b8383611c22565b5050565b61129461128e611721565b836117e2565b6112d3576040517f08c379a00000000000000000000000000000000000000000000000000000000081526004016112ca90612bc8565b60405180910390fd5b6112df84848484611d8f565b50505050565b600a5481565b600880546112f890612a00565b80601f016020809104026020016040519081016040528092919081815260200182805461132490612a00565b80156113715780601f1061134657610100808354040283529160200191611371565b820191906000526020600020905b81548152906001019060200180831161135457829003601f168201915b505050505081565b6060611384826116d6565b600061138e611deb565b905060008151116113ae57604051806020016040528060008152506113d9565b806113b884611e7d565b6040516020016113c9929190612e84565b6040516020818303038152906040525b915050919050565b600a543414611425576040517f08c379a000000000000000000000000000000000000000000000000000000000815260040161141c90612ef4565b60405180910390fd5b60008111611468576040517f08c379a000000000000000000000000000000000000000000000000000000000815260040161145f90612f60565b60405180910390fd5b80600b838154811061147d5761147c612be8565b5b90600052602060002090600302016002018190555033600b83815481106114a7576114a6612be8565b5b906000526020600020906003020160010160006101000a81548173ffffffffffffffffffffffffffffffffffffffff021916908373ffffffffffffffffffffffffffffffffffffffff160217905550611501333084611877565b3373ffffffffffffffffffffffffffffffffffffffff16827fb2ba12d2566848b13548a3741edb565b69d3cbce7796959cd67431610207eb13836040516115489190612712565b60405180910390a35050565b6000600560008473ffffffffffffffffffffffffffffffffffffffff1673ffffffffffffffffffffffffffffffffffffffff16815260200190815260200160002060008373ffffffffffffffffffffffffffffffffffffffff1673ffffffffffffffffffffffffffffffffffffffff16815260200190815260200160002060009054906101000a900460ff16905092915050565b6115f0611ade565b600073ffffffffffffffffffffffffffffffffffffffff168173ffffffffffffffffffffffffffffffffffffffff161415611660576040517f08c379a000000000000000000000000000000000000000000000000000000000815260040161165790612ff2565b60405180910390fd5b61166981611b5c565b50565b60007f01ffc9a7000000000000000000000000000000000000000000000000000000007bffffffffffffffffffffffffffffffffffffffffffffffffffffffff1916827bffffffffffffffffffffffffffffffffffffffffffffffffffffffff1916149050919050565b6116df81611fde565b61171e576040517f08c379a000000000000000000000000000000000000000000000000000000000815260040161171590612d96565b60405180910390fd5b50565b600033905090565b816004600083815260200190815260200160002060006101000a81548173ffffffffffffffffffffffffffffffffffffffff021916908373ffffffffffffffffffffffffffffffffffffffff160217905550808273ffffffffffffffffffffffffffffffffffffffff1661179c83610dcf565b73ffffffffffffffffffffffffffffffffffffffff167f8c5be1e5ebec7d5bd14f71427d1e84f3dd0314c0f7b2291e5b200ac8c7c3b92560405160405180910390a45050565b6000806117ee83610dcf565b90508073ffffffffffffffffffffffffffffffffffffffff168473ffffffffffffffffffffffffffffffffffffffff161480611830575061182f8185611554565b5b8061186e57508373ffffffffffffffffffffffffffffffffffffffff1661185684610798565b73ffffffffffffffffffffffffffffffffffffffff16145b91505092915050565b8273ffffffffffffffffffffffffffffffffffffffff1661189782610dcf565b73ffffffffffffffffffffffffffffffffffffffff16146118ed576040517f08c379a00000000000000000000000000000000000000000000000000000000081526004016118e490613084565b60405180910390fd5b600073ffffffffffffffffffffffffffffffffffffffff168273ffffffffffffffffffffffffffffffffffffffff16141561195d576040517f08c379a000000000000000000000000000000000000000000000000000000000815260040161195490613116565b60405180910390fd5b61196883838361204a565b611973600082611729565b6001600360008573ffffffffffffffffffffffffffffffffffffffff1673ffffffffffffffffffffffffffffffffffffffff16815260200190815260200160002060008282546119c39190613136565b925050819055506001600360008473ffffffffffffffffffffffffffffffffffffffff1673ffffffffffffffffffffffffffffffffffffffff1681526020019081526020016000206000828254611a1a919061316a565b92505081905550816002600083815260200190815260200160002060006101000a81548173ffffffffffffffffffffffffffffffffffffffff021916908373ffffffffffffffffffffffffffffffffffffffff160217905550808273ffffffffffffffffffffffffffffffffffffffff168473ffffffffffffffffffffffffffffffffffffffff167fddf252ad1be2c89b69c2b068fc378daa952ba7f163c4a11628f55a4df523b3ef60405160405180910390a4611ad983838361204f565b505050565b611ae6611721565b73ffffffffffffffffffffffffffffffffffffffff16611b046111b1565b73ffffffffffffffffffffffffffffffffffffffff1614611b5a576040517f08c379a0000000000000000000000000000000000000000000000000000000008152600401611b519061320c565b60405180910390fd5b565b6000600660009054906101000a900473ffffffffffffffffffffffffffffffffffffffff16905081600660006101000a81548173ffffffffffffffffffffffffffffffffffffffff021916908373ffffffffffffffffffffffffffffffffffffffff1602179055508173ffffffffffffffffffffffffffffffffffffffff168173ffffffffffffffffffffffffffffffffffffffff167f8be0079c531659141344cd1fd0a4f28419497f9722a3daafe3b4186f6b6457e060405160405180910390a35050565b8173ffffffffffffffffffffffffffffffffffffffff168373ffffffffffffffffffffffffffffffffffffffff161415611c91576040517f08c379a0000000000000000000000000000000000000000000000000000000008152600401611c8890613278565b60405180910390fd5b80600560008573ffffffffffffffffffffffffffffffffffffffff1673ffffffffffffffffffffffffffffffffffffffff16815260200190815260200160002060008473ffffffffffffffffffffffffffffffffffffffff1673ffffffffffffffffffffffffffffffffffffffff16815260200190815260200160002060006101000a81548160ff0219169083151502179055508173ffffffffffffffffffffffffffffffffffffffff168373ffffffffffffffffffffffffffffffffffffffff167f17307eab39ab6107e8899845ad3d59bd9653f200f220920489ca2b5937696c3183604051611d8291906122f9565b60405180910390a3505050565b611d9a848484611877565b611da684848484612054565b611de5576040517f08c379a0000000000000000000000000000000000000000000000000000000008152600401611ddc9061330a565b60405180910390fd5b50505050565b606060078054611dfa90612a00565b80601f0160208091040260200160405190810160405280929190818152602001828054611e2690612a00565b8015611e735780601f10611e4857610100808354040283529160200191611e73565b820191906000526020600020905b815481529060010190602001808311611e5657829003601f168201915b5050505050905090565b60606000821415611ec5576040518060400160405280600181526020017f30000000000000000000000000000000000000000000000000000000000000008152509050611fd9565b600082905060005b60008214611ef7578080611ee090612d01565b915050600a82611ef09190613359565b9150611ecd565b60008167ffffffffffffffff811115611f1357611f126127a3565b5b6040519080825280601f01601f191660200182016040528015611f455781602001600182028036833780820191505090505b5090505b60008514611fd257600182611f5e9190613136565b9150600a85611f6d919061338a565b6030611f79919061316a565b60f81b818381518110611f8f57611f8e612be8565b5b60200101907effffffffffffffffffffffffffffffffffffffffffffffffffffffffffffff1916908160001a905350600a85611fcb9190613359565b9450611f49565b8093505050505b919050565b60008073ffffffffffffffffffffffffffffffffffffffff166002600084815260200190815260200160002060009054906101000a900473ffffffffffffffffffffffffffffffffffffffff1673ffffffffffffffffffffffffffffffffffffffff1614159050919050565b505050565b505050565b60006120758473ffffffffffffffffffffffffffffffffffffffff166121eb565b156121de578373ffffffffffffffffffffffffffffffffffffffff1663150b7a0261209e611721565b8786866040518563ffffffff1660e01b81526004016120c09493929190613410565b602060405180830381600087803b1580156120da57600080fd5b505af192505050801561210b57506040513d601f19601f820116820180604052508101906121089190613471565b60015b61218e573d806000811461213b576040519150601f19603f3d011682016040523d82523d6000602084013e612140565b606091505b50600081511415612186576040517f08c379a000000000000000000000000000000000000000000000000000000000815260040161217d9061330a565b60405180910390fd5b805181602001fd5b63150b7a0260e01b7bffffffffffffffffffffffffffffffffffffffffffffffffffffffff1916817bffffffffffffffffffffffffffffffffffffffffffffffffffffffff1916149150506121e3565b600190505b949350505050565b6000808273ffffffffffffffffffffffffffffffffffffffff163b119050919050565b604051806060016040528060008152602001600073ffffffffffffffffffffffffffffffffffffffff168152602001600081525090565b6000604051905090565b600080fd5b600080fd5b60007fffffffff0000000000000000000000000000000000000000000000000000000082169050919050565b61228e81612259565b811461229957600080fd5b50565b6000813590506122ab81612285565b92915050565b6000602082840312156122c7576122c661224f565b5b60006122d58482850161229c565b91505092915050565b60008115159050919050565b6122f3816122de565b82525050565b600060208201905061230e60008301846122ea565b92915050565b600081519050919050565b600082825260208201905092915050565b60005b8381101561234e578082015181840152602081019050612333565b8381111561235d576000848401525b50505050565b6000601f19601f8301169050919050565b600061237f82612314565b612389818561231f565b9350612399818560208601612330565b6123a281612363565b840191505092915050565b600060208201905081810360008301526123c78184612374565b905092915050565b6000819050919050565b6123e2816123cf565b81146123ed57600080fd5b50565b6000813590506123ff816123d9565b92915050565b60006020828403121561241b5761241a61224f565b5b6000612429848285016123f0565b91505092915050565b600073ffffffffffffffffffffffffffffffffffffffff82169050919050565b600061245d82612432565b9050919050565b61246d81612452565b82525050565b60006020820190506124886000830184612464565b92915050565b61249781612452565b81146124a257600080fd5b50565b6000813590506124b48161248e565b92915050565b600080604083850312156124d1576124d061224f565b5b60006124df858286016124a5565b92505060206124f0858286016123f0565b9150509250929050565b6000806000606084860312156125135761251261224f565b5b6000612521868287016124a5565b9350506020612532868287016124a5565b9250506040612543868287016123f0565b9150509250925092565b612556816123cf565b82525050565b600061256782612432565b9050919050565b6125778161255c565b82525050565b6000606082019050612592600083018661254d565b61259f602083018561256e565b6125ac604083018461254d565b949350505050565b600081519050919050565b600082825260208201905092915050565b6000819050602082019050919050565b6125e9816123cf565b82525050565b6125f88161255c565b82525050565b60608201600082015161261460008501826125e0565b50602082015161262760208501826125ef565b50604082015161263a60408501826125e0565b50505050565b600061264c83836125fe565b60608301905092915050565b6000602082019050919050565b6000612670826125b4565b61267a81856125bf565b9350612685836125d0565b8060005b838110156126b657815161269d8882612640565b97506126a883612658565b925050600181019050612689565b5085935050505092915050565b600060208201905081810360008301526126dd8184612665565b905092915050565b6000602082840312156126fb576126fa61224f565b5b6000612709848285016124a5565b91505092915050565b6000602082019050612727600083018461254d565b92915050565b612736816122de565b811461274157600080fd5b50565b6000813590506127538161272d565b92915050565b600080604083850312156127705761276f61224f565b5b600061277e858286016124a5565b925050602061278f85828601612744565b9150509250929050565b600080fd5b600080fd5b7f4e487b7100000000000000000000000000000000000000000000000000000000600052604160045260246000fd5b6127db82612363565b810181811067ffffffffffffffff821117156127fa576127f96127a3565b5b80604052505050565b600061280d612245565b905061281982826127d2565b919050565b600067ffffffffffffffff821115612839576128386127a3565b5b61284282612363565b9050602081019050919050565b82818337600083830152505050565b600061287161286c8461281e565b612803565b90508281526020810184848401111561288d5761288c61279e565b5b61289884828561284f565b509392505050565b600082601f8301126128b5576128b4612799565b5b81356128c584826020860161285e565b91505092915050565b600080600080608085870312156128e8576128e761224f565b5b60006128f6878288016124a5565b9450506020612907878288016124a5565b9350506040612918878288016123f0565b925050606085013567ffffffffffffffff81111561293957612938612254565b5b612945878288016128a0565b91505092959194509250565b600080604083850312156129685761296761224f565b5b6000612976858286016123f0565b9250506020612987858286016123f0565b9150509250929050565b600080604083850312156129a8576129a761224f565b5b60006129b6858286016124a5565b92505060206129c7858286016124a5565b9150509250929050565b7f4e487b7100000000000000000000000000000000000000000000000000000000600052602260045260246000fd5b60006002820490506001821680612a1857607f821691505b60208210811415612a2c57612a2b6129d1565b5b50919050565b7f4552433732313a20617070726f76616c20746f2063757272656e74206f776e6560008201527f7200000000000000000000000000000000000000000000000000000000000000602082015250565b6000612a8e60218361231f565b9150612a9982612a32565b604082019050919050565b60006020820190508181036000830152612abd81612a81565b9050919050565b7f4552433732313a20617070726f76652063616c6c6572206973206e6f7420746f60008201527f6b656e206f776e6572206e6f7220617070726f76656420666f7220616c6c0000602082015250565b6000612b20603e8361231f565b9150612b2b82612ac4565b604082019050919050565b60006020820190508181036000830152612b4f81612b13565b9050919050565b7f4552433732313a2063616c6c6572206973206e6f7420746f6b656e206f776e6560008201527f72206e6f7220617070726f766564000000000000000000000000000000000000602082015250565b6000612bb2602e8361231f565b9150612bbd82612b56565b604082019050919050565b60006020820190508181036000830152612be181612ba5565b9050919050565b7f4e487b7100000000000000000000000000000000000000000000000000000000600052603260045260246000fd5b7f506c656173652073656e64207468652061736b696e6720707269636520696e2060008201527f6f7264657220746f20636f6d706c657465207468652070757263686173650000602082015250565b6000612c73603e8361231f565b9150612c7e82612c17565b604082019050919050565b60006020820190508181036000830152612ca281612c66565b9050919050565b6000604082019050612cbe6000830185612464565b612ccb602083018461254d565b9392505050565b7f4e487b7100000000000000000000000000000000000000000000000000000000600052601160045260246000fd5b6000612d0c826123cf565b91507fffffffffffffffffffffffffffffffffffffffffffffffffffffffffffffffff821415612d3f57612d3e612cd2565b5b600182019050919050565b7f4552433732313a20696e76616c696420746f6b656e2049440000000000000000600082015250565b6000612d8060188361231f565b9150612d8b82612d4a565b602082019050919050565b60006020820190508181036000830152612daf81612d73565b9050919050565b7f4552433732313a2061646472657373207a65726f206973206e6f74206120766160008201527f6c6964206f776e65720000000000000000000000000000000000000000000000602082015250565b6000612e1260298361231f565b9150612e1d82612db6565b604082019050919050565b60006020820190508181036000830152612e4181612e05565b9050919050565b600081905092915050565b6000612e5e82612314565b612e688185612e48565b9350612e78818560208601612330565b80840191505092915050565b6000612e908285612e53565b9150612e9c8284612e53565b91508190509392505050565b7f4d7573742070617920726f79616c747900000000000000000000000000000000600082015250565b6000612ede60108361231f565b9150612ee982612ea8565b602082019050919050565b60006020820190508181036000830152612f0d81612ed1565b9050919050565b7f5072696365206d7573742062652067726561746572207468616e207a65726f00600082015250565b6000612f4a601f8361231f565b9150612f5582612f14565b602082019050919050565b60006020820190508181036000830152612f7981612f3d565b9050919050565b7f4f776e61626c653a206e6577206f776e657220697320746865207a65726f206160008201527f6464726573730000000000000000000000000000000000000000000000000000602082015250565b6000612fdc60268361231f565b9150612fe782612f80565b604082019050919050565b6000602082019050818103600083015261300b81612fcf565b9050919050565b7f4552433732313a207472616e736665722066726f6d20696e636f72726563742060008201527f6f776e6572000000000000000000000000000000000000000000000000000000602082015250565b600061306e60258361231f565b915061307982613012565b604082019050919050565b6000602082019050818103600083015261309d81613061565b9050919050565b7f4552433732313a207472616e7366657220746f20746865207a65726f2061646460008201527f7265737300000000000000000000000000000000000000000000000000000000602082015250565b600061310060248361231f565b915061310b826130a4565b604082019050919050565b6000602082019050818103600083015261312f816130f3565b9050919050565b6000613141826123cf565b915061314c836123cf565b92508282101561315f5761315e612cd2565b5b828203905092915050565b6000613175826123cf565b9150613180836123cf565b9250827fffffffffffffffffffffffffffffffffffffffffffffffffffffffffffffffff038211156131b5576131b4612cd2565b5b828201905092915050565b7f4f776e61626c653a2063616c6c6572206973206e6f7420746865206f776e6572600082015250565b60006131f660208361231f565b9150613201826131c0565b602082019050919050565b60006020820190508181036000830152613225816131e9565b9050919050565b7f4552433732313a20617070726f766520746f2063616c6c657200000000000000600082015250565b600061326260198361231f565b915061326d8261322c565b602082019050919050565b6000602082019050818103600083015261329181613255565b9050919050565b7f4552433732313a207472616e7366657220746f206e6f6e20455243373231526560008201527f63656976657220696d706c656d656e7465720000000000000000000000000000602082015250565b60006132f460328361231f565b91506132ff82613298565b604082019050919050565b60006020820190508181036000830152613323816132e7565b9050919050565b7f4e487b7100000000000000000000000000000000000000000000000000000000600052601260045260246000fd5b6000613364826123cf565b915061336f836123cf565b92508261337f5761337e61332a565b5b828204905092915050565b6000613395826123cf565b91506133a0836123cf565b9250826133b0576133af61332a565b5b828206905092915050565b600081519050919050565b600082825260208201905092915050565b60006133e2826133bb565b6133ec81856133c6565b93506133fc818560208601612330565b61340581612363565b840191505092915050565b60006080820190506134256000830187612464565b6134326020830186612464565b61343f604083018561254d565b818103606083015261345181846133d7565b905095945050505050565b60008151905061346b81612285565b92915050565b6000602082840312156134875761348661224f565b5b60006134958482850161345c565b9150509291505056fea2646970667358221220036d84312ebfb70db35de1289f7dd76255135a1ca2df7473ce3639dab716ed3064736f6c6343000809003368747470733a2f2f647765622e6c696e6b2f697066732f626166796265696671376a70747475376265356f6b647466697461366d34746f7235786435777070766d7762756c37376a73766d373633767933792f",
  "linkReferences": {},
  "deployedLinkReferences": {}
}